{
	"contracts/test.sol": {
		"Test": {
			"abi": [
				{
					"inputs": [],
					"name": "age",
					"outputs": [
						{
							"internalType": "uint256",
							"name": "",
							"type": "uint256"
						}
					],
					"stateMutability": "view",
					"type": "function"
				},
				{
					"inputs": [],
					"name": "name",
					"outputs": [
						{
							"internalType": "bytes2",
							"name": "",
							"type": "bytes2"
						}
					],
					"stateMutability": "view",
					"type": "function"
				},
				{
					"inputs": [],
					"name": "setter",
					"outputs": [],
					"stateMutability": "nonpayable",
					"type": "function"
				},
				{
					"inputs": [
						{
							"internalType": "uint256",
							"name": "newAge",
							"type": "uint256"
						}
					],
					"name": "setter",
					"outputs": [],
					"stateMutability": "nonpayable",
					"type": "function"
				}
			],
			"devdoc": {
				"kind": "dev",
				"methods": {},
				"version": 1
			},
			"evm": {
				"assembly": "    /* \"contracts/test.sol\":69:260  contract Test {... */\n  mstore(0x40, 0x80)\n  callvalue\n  dup1\n  iszero\n  tag_1\n  jumpi\n  0x00\n  dup1\n  revert\ntag_1:\n  pop\n  dataSize(sub_0)\n  dup1\n  dataOffset(sub_0)\n  0x00\n  codecopy\n  0x00\n  return\nstop\n\nsub_0: assembly {\n        /* \"contracts/test.sol\":69:260  contract Test {... */\n      mstore(0x40, 0x80)\n      callvalue\n      dup1\n      iszero\n      tag_1\n      jumpi\n      0x00\n      dup1\n      revert\n    tag_1:\n      pop\n      jumpi(tag_2, lt(calldatasize, 0x04))\n      shr(0xe0, calldataload(0x00))\n      dup1\n      0x06fdde03\n      eq\n      tag_3\n      jumpi\n      dup1\n      0x262a9dff\n      eq\n      tag_4\n      jumpi\n      dup1\n      0x3f3108f7\n      eq\n      tag_5\n      jumpi\n      dup1\n      0xd423740b\n      eq\n      tag_6\n      jumpi\n    tag_2:\n      0x00\n      dup1\n      revert\n        /* \"contracts/test.sol\":110:128  bytes2 public name */\n    tag_3:\n      tag_7\n      tag_8\n      jump\t// in\n    tag_7:\n      mload(0x40)\n      tag_9\n      swap2\n      swap1\n      tag_10\n      jump\t// in\n    tag_9:\n      mload(0x40)\n      dup1\n      swap2\n      sub\n      swap1\n      return\n        /* \"contracts/test.sol\":89:104  uint public age */\n    tag_4:\n      tag_11\n      tag_12\n      jump\t// in\n    tag_11:\n      mload(0x40)\n      tag_13\n      swap2\n      swap1\n      tag_14\n      jump\t// in\n    tag_13:\n      mload(0x40)\n      dup1\n      swap2\n      sub\n      swap1\n      return\n        /* \"contracts/test.sol\":206:258  function setter() public {... */\n    tag_5:\n      tag_15\n      tag_16\n      jump\t// in\n    tag_15:\n      stop\n        /* \"contracts/test.sol\":135:200  function setter(uint newAge) public {... */\n    tag_6:\n      tag_17\n      0x04\n      dup1\n      calldatasize\n      sub\n      dup2\n      add\n      swap1\n      tag_18\n      swap2\n      swap1\n      tag_19\n      jump\t// in\n    tag_18:\n      tag_20\n      jump\t// in\n    tag_17:\n      stop\n        /* \"contracts/test.sol\":110:128  bytes2 public name */\n    tag_8:\n      0x01\n      0x00\n      swap1\n      sload\n      swap1\n      0x0100\n      exp\n      swap1\n      div\n      0xf0\n      shl\n      dup2\n      jump\t// out\n        /* \"contracts/test.sol\":89:104  uint public age */\n    tag_12:\n      sload(0x00)\n      dup2\n      jump\t// out\n        /* \"contracts/test.sol\":206:258  function setter() public {... */\n    tag_16:\n        /* \"contracts/test.sol\":241:251  name = '1' */\n      0x3100000000000000000000000000000000000000000000000000000000000000\n        /* \"contracts/test.sol\":241:245  name */\n      0x01\n      0x00\n        /* \"contracts/test.sol\":241:251  name = '1' */\n      0x0100\n      exp\n      dup2\n      sload\n      dup2\n      0xffff\n      mul\n      not\n      and\n      swap1\n      dup4\n      0xf0\n      shr\n      mul\n      or\n      swap1\n      sstore\n      pop\n        /* \"contracts/test.sol\":206:258  function setter() public {... */\n      jump\t// out\n        /* \"contracts/test.sol\":135:200  function setter(uint newAge) public {... */\n    tag_20:\n        /* \"contracts/test.sol\":187:193  newAge */\n      dup1\n        /* \"contracts/test.sol\":181:184  age */\n      0x00\n        /* \"contracts/test.sol\":181:193  age = newAge */\n      dup2\n      swap1\n      sstore\n      pop\n        /* \"contracts/test.sol\":135:200  function setter(uint newAge) public {... */\n      pop\n      jump\t// out\n        /* \"#utility.yul\":7:156   */\n    tag_23:\n        /* \"#utility.yul\":43:50   */\n      0x00\n        /* \"#utility.yul\":83:149   */\n      0xffff000000000000000000000000000000000000000000000000000000000000\n        /* \"#utility.yul\":76:81   */\n      dup3\n        /* \"#utility.yul\":72:150   */\n      and\n        /* \"#utility.yul\":61:150   */\n      swap1\n      pop\n        /* \"#utility.yul\":7:156   */\n      swap2\n      swap1\n      pop\n      jump\t// out\n        /* \"#utility.yul\":162:277   */\n    tag_24:\n        /* \"#utility.yul\":247:270   */\n      tag_35\n        /* \"#utility.yul\":264:269   */\n      dup2\n        /* \"#utility.yul\":247:270   */\n      tag_23\n      jump\t// in\n    tag_35:\n        /* \"#utility.yul\":242:245   */\n      dup3\n        /* \"#utility.yul\":235:271   */\n      mstore\n        /* \"#utility.yul\":162:277   */\n      pop\n      pop\n      jump\t// out\n        /* \"#utility.yul\":283:501   */\n    tag_10:\n        /* \"#utility.yul\":374:378   */\n      0x00\n        /* \"#utility.yul\":412:414   */\n      0x20\n        /* \"#utility.yul\":401:410   */\n      dup3\n        /* \"#utility.yul\":397:415   */\n      add\n        /* \"#utility.yul\":389:415   */\n      swap1\n      pop\n        /* \"#utility.yul\":425:494   */\n      tag_37\n        /* \"#utility.yul\":491:492   */\n      0x00\n        /* \"#utility.yul\":480:489   */\n      dup4\n        /* \"#utility.yul\":476:493   */\n      add\n        /* \"#utility.yul\":467:473   */\n      dup5\n        /* \"#utility.yul\":425:494   */\n      tag_24\n      jump\t// in\n    tag_37:\n        /* \"#utility.yul\":283:501   */\n      swap3\n      swap2\n      pop\n      pop\n      jump\t// out\n        /* \"#utility.yul\":507:584   */\n    tag_25:\n        /* \"#utility.yul\":544:551   */\n      0x00\n        /* \"#utility.yul\":573:578   */\n      dup2\n        /* \"#utility.yul\":562:578   */\n      swap1\n      pop\n        /* \"#utility.yul\":507:584   */\n      swap2\n      swap1\n      pop\n      jump\t// out\n        /* \"#utility.yul\":590:708   */\n    tag_26:\n        /* \"#utility.yul\":677:701   */\n      tag_40\n        /* \"#utility.yul\":695:700   */\n      dup2\n        /* \"#utility.yul\":677:701   */\n      tag_25\n      jump\t// in\n    tag_40:\n        /* \"#utility.yul\":672:675   */\n      dup3\n        /* \"#utility.yul\":665:702   */\n      mstore\n        /* \"#utility.yul\":590:708   */\n      pop\n      pop\n      jump\t// out\n        /* \"#utility.yul\":714:936   */\n    tag_14:\n        /* \"#utility.yul\":807:811   */\n      0x00\n        /* \"#utility.yul\":845:847   */\n      0x20\n        /* \"#utility.yul\":834:843   */\n      dup3\n        /* \"#utility.yul\":830:848   */\n      add\n        /* \"#utility.yul\":822:848   */\n      swap1\n      pop\n        /* \"#utility.yul\":858:929   */\n      tag_42\n        /* \"#utility.yul\":926:927   */\n      0x00\n        /* \"#utility.yul\":915:924   */\n      dup4\n        /* \"#utility.yul\":911:928   */\n      add\n        /* \"#utility.yul\":902:908   */\n      dup5\n        /* \"#utility.yul\":858:929   */\n      tag_26\n      jump\t// in\n    tag_42:\n        /* \"#utility.yul\":714:936   */\n      swap3\n      swap2\n      pop\n      pop\n      jump\t// out\n        /* \"#utility.yul\":1023:1140   */\n    tag_28:\n        /* \"#utility.yul\":1132:1133   */\n      0x00\n        /* \"#utility.yul\":1129:1130   */\n      dup1\n        /* \"#utility.yul\":1122:1134   */\n      revert\n        /* \"#utility.yul\":1269:1391   */\n    tag_30:\n        /* \"#utility.yul\":1342:1366   */\n      tag_47\n        /* \"#utility.yul\":1360:1365   */\n      dup2\n        /* \"#utility.yul\":1342:1366   */\n      tag_25\n      jump\t// in\n    tag_47:\n        /* \"#utility.yul\":1335:1340   */\n      dup2\n        /* \"#utility.yul\":1332:1367   */\n      eq\n        /* \"#utility.yul\":1322:1385   */\n      tag_48\n      jumpi\n        /* \"#utility.yul\":1381:1382   */\n      0x00\n        /* \"#utility.yul\":1378:1379   */\n      dup1\n        /* \"#utility.yul\":1371:1383   */\n      revert\n        /* \"#utility.yul\":1322:1385   */\n    tag_48:\n        /* \"#utility.yul\":1269:1391   */\n      pop\n      jump\t// out\n        /* \"#utility.yul\":1397:1536   */\n    tag_31:\n        /* \"#utility.yul\":1443:1448   */\n      0x00\n        /* \"#utility.yul\":1481:1487   */\n      dup2\n        /* \"#utility.yul\":1468:1488   */\n      calldataload\n        /* \"#utility.yul\":1459:1488   */\n      swap1\n      pop\n        /* \"#utility.yul\":1497:1530   */\n      tag_50\n        /* \"#utility.yul\":1524:1529   */\n      dup2\n        /* \"#utility.yul\":1497:1530   */\n      tag_30\n      jump\t// in\n    tag_50:\n        /* \"#utility.yul\":1397:1536   */\n      swap3\n      swap2\n      pop\n      pop\n      jump\t// out\n        /* \"#utility.yul\":1542:1871   */\n    tag_19:\n        /* \"#utility.yul\":1601:1607   */\n      0x00\n        /* \"#utility.yul\":1650:1652   */\n      0x20\n        /* \"#utility.yul\":1638:1647   */\n      dup3\n        /* \"#utility.yul\":1629:1636   */\n      dup5\n        /* \"#utility.yul\":1625:1648   */\n      sub\n        /* \"#utility.yul\":1621:1653   */\n      slt\n        /* \"#utility.yul\":1618:1737   */\n      iszero\n      tag_52\n      jumpi\n        /* \"#utility.yul\":1656:1735   */\n      tag_53\n      tag_28\n      jump\t// in\n    tag_53:\n        /* \"#utility.yul\":1618:1737   */\n    tag_52:\n        /* \"#utility.yul\":1776:1777   */\n      0x00\n        /* \"#utility.yul\":1801:1854   */\n      tag_54\n        /* \"#utility.yul\":1846:1853   */\n      dup5\n        /* \"#utility.yul\":1837:1843   */\n      dup3\n        /* \"#utility.yul\":1826:1835   */\n      dup6\n        /* \"#utility.yul\":1822:1844   */\n      add\n        /* \"#utility.yul\":1801:1854   */\n      tag_31\n      jump\t// in\n    tag_54:\n        /* \"#utility.yul\":1791:1854   */\n      swap2\n      pop\n        /* \"#utility.yul\":1747:1864   */\n      pop\n        /* \"#utility.yul\":1542:1871   */\n      swap3\n      swap2\n      pop\n      pop\n      jump\t// out\n\n    auxdata: 0xa2646970667358221220315698216d3b6b20325897b91ae717c5cc386e7b6c286486362759370bbb7ecd64736f6c634300081a0033\n}\n",
				"bytecode": {
					"linkReferences": {},
					"object": "6080604052348015600e575f80fd5b506102208061001c5f395ff3fe608060405234801561000f575f80fd5b506004361061004a575f3560e01c806306fdde031461004e578063262a9dff1461006c5780633f3108f71461008a578063d423740b14610094575b5f80fd5b6100566100b0565b6040516100639190610147565b60405180910390f35b6100746100c2565b6040516100819190610178565b60405180910390f35b6100926100c7565b005b6100ae60048036038101906100a991906101bf565b610104565b005b60015f9054906101000a900460f01b81565b5f5481565b7f310000000000000000000000000000000000000000000000000000000000000060015f6101000a81548161ffff021916908360f01c0217905550565b805f8190555050565b5f7fffff00000000000000000000000000000000000000000000000000000000000082169050919050565b6101418161010d565b82525050565b5f60208201905061015a5f830184610138565b92915050565b5f819050919050565b61017281610160565b82525050565b5f60208201905061018b5f830184610169565b92915050565b5f80fd5b61019e81610160565b81146101a8575f80fd5b50565b5f813590506101b981610195565b92915050565b5f602082840312156101d4576101d3610191565b5b5f6101e1848285016101ab565b9150509291505056fea2646970667358221220315698216d3b6b20325897b91ae717c5cc386e7b6c286486362759370bbb7ecd64736f6c634300081a0033",
					"opcodes": "PUSH1 0x80 PUSH1 0x40 MSTORE CALLVALUE DUP1 ISZERO PUSH1 0xE JUMPI PUSH0 DUP1 REVERT JUMPDEST POP PUSH2 0x220 DUP1 PUSH2 0x1C PUSH0 CODECOPY PUSH0 RETURN INVALID PUSH1 0x80 PUSH1 0x40 MSTORE CALLVALUE DUP1 ISZERO PUSH2 0xF JUMPI PUSH0 DUP1 REVERT JUMPDEST POP PUSH1 0x4 CALLDATASIZE LT PUSH2 0x4A JUMPI PUSH0 CALLDATALOAD PUSH1 0xE0 SHR DUP1 PUSH4 0x6FDDE03 EQ PUSH2 0x4E JUMPI DUP1 PUSH4 0x262A9DFF EQ PUSH2 0x6C JUMPI DUP1 PUSH4 0x3F3108F7 EQ PUSH2 0x8A JUMPI DUP1 PUSH4 0xD423740B EQ PUSH2 0x94 JUMPI JUMPDEST PUSH0 DUP1 REVERT JUMPDEST PUSH2 0x56 PUSH2 0xB0 JUMP JUMPDEST PUSH1 0x40 MLOAD PUSH2 0x63 SWAP2 SWAP1 PUSH2 0x147 JUMP JUMPDEST PUSH1 0x40 MLOAD DUP1 SWAP2 SUB SWAP1 RETURN JUMPDEST PUSH2 0x74 PUSH2 0xC2 JUMP JUMPDEST PUSH1 0x40 MLOAD PUSH2 0x81 SWAP2 SWAP1 PUSH2 0x178 JUMP JUMPDEST PUSH1 0x40 MLOAD DUP1 SWAP2 SUB SWAP1 RETURN JUMPDEST PUSH2 0x92 PUSH2 0xC7 JUMP JUMPDEST STOP JUMPDEST PUSH2 0xAE PUSH1 0x4 DUP1 CALLDATASIZE SUB DUP2 ADD SWAP1 PUSH2 0xA9 SWAP2 SWAP1 PUSH2 0x1BF JUMP JUMPDEST PUSH2 0x104 JUMP JUMPDEST STOP JUMPDEST PUSH1 0x1 PUSH0 SWAP1 SLOAD SWAP1 PUSH2 0x100 EXP SWAP1 DIV PUSH1 0xF0 SHL DUP2 JUMP JUMPDEST PUSH0 SLOAD DUP2 JUMP JUMPDEST PUSH32 0x3100000000000000000000000000000000000000000000000000000000000000 PUSH1 0x1 PUSH0 PUSH2 0x100 EXP DUP2 SLOAD DUP2 PUSH2 0xFFFF MUL NOT AND SWAP1 DUP4 PUSH1 0xF0 SHR MUL OR SWAP1 SSTORE POP JUMP JUMPDEST DUP1 PUSH0 DUP2 SWAP1 SSTORE POP POP JUMP JUMPDEST PUSH0 PUSH32 0xFFFF000000000000000000000000000000000000000000000000000000000000 DUP3 AND SWAP1 POP SWAP2 SWAP1 POP JUMP JUMPDEST PUSH2 0x141 DUP2 PUSH2 0x10D JUMP JUMPDEST DUP3 MSTORE POP POP JUMP JUMPDEST PUSH0 PUSH1 0x20 DUP3 ADD SWAP1 POP PUSH2 0x15A PUSH0 DUP4 ADD DUP5 PUSH2 0x138 JUMP JUMPDEST SWAP3 SWAP2 POP POP JUMP JUMPDEST PUSH0 DUP2 SWAP1 POP SWAP2 SWAP1 POP JUMP JUMPDEST PUSH2 0x172 DUP2 PUSH2 0x160 JUMP JUMPDEST DUP3 MSTORE POP POP JUMP JUMPDEST PUSH0 PUSH1 0x20 DUP3 ADD SWAP1 POP PUSH2 0x18B PUSH0 DUP4 ADD DUP5 PUSH2 0x169 JUMP JUMPDEST SWAP3 SWAP2 POP POP JUMP JUMPDEST PUSH0 DUP1 REVERT JUMPDEST PUSH2 0x19E DUP2 PUSH2 0x160 JUMP JUMPDEST DUP2 EQ PUSH2 0x1A8 JUMPI PUSH0 DUP1 REVERT JUMPDEST POP JUMP JUMPDEST PUSH0 DUP2 CALLDATALOAD SWAP1 POP PUSH2 0x1B9 DUP2 PUSH2 0x195 JUMP JUMPDEST SWAP3 SWAP2 POP POP JUMP JUMPDEST PUSH0 PUSH1 0x20 DUP3 DUP5 SUB SLT ISZERO PUSH2 0x1D4 JUMPI PUSH2 0x1D3 PUSH2 0x191 JUMP JUMPDEST JUMPDEST PUSH0 PUSH2 0x1E1 DUP5 DUP3 DUP6 ADD PUSH2 0x1AB JUMP JUMPDEST SWAP2 POP POP SWAP3 SWAP2 POP POP JUMP INVALID LOG2 PUSH5 0x6970667358 0x22 SLT KECCAK256 BALANCE JUMP SWAP9 0x21 PUSH14 0x3B6B20325897B91AE717C5CC386E PUSH28 0x6C286486362759370BBB7ECD64736F6C634300081A00330000000000 "
				},
				"gasEstimates": {
					"creation": {
						"codeDepositCost": "108800",
						"executionCost": "151",
						"totalCost": "108951"
					},
					"external": {
						"age()": "2424",
						"name()": "2444",
						"setter()": "24431",
						"setter(uint256)": "22558"
					}
				},
				"methodIdentifiers": {
					"age()": "262a9dff",
					"name()": "06fdde03",
					"setter()": "3f3108f7",
					"setter(uint256)": "d423740b"
				}
			},
			"storageLayout": {
				"storage": [
					{
						"astId": 3,
						"contract": "contracts/test.sol:Test",
						"label": "age",
						"offset": 0,
						"slot": "0",
						"type": "t_uint256"
					},
					{
						"astId": 5,
						"contract": "contracts/test.sol:Test",
						"label": "name",
						"offset": 0,
						"slot": "1",
						"type": "t_bytes2"
					}
				],
				"types": {
					"t_bytes2": {
						"encoding": "inplace",
						"label": "bytes2",
						"numberOfBytes": "2"
					},
					"t_uint256": {
						"encoding": "inplace",
						"label": "uint256",
						"numberOfBytes": "32"
					}
				}
			},
			"userdoc": {
				"kind": "user",
				"methods": {},
				"version": 1
			}
		}
	}
}